:100000000C9462000C948A000C948A000C948A0070
:100010000C948A000C948A000C948A000C948A0038
:100020000C948A000C948A000C948A000C948A0028
:100030000C948A000C948A000C948A000C948A0018
:100040000C94E2000C948A000C9420020C948A0018
:100050000C948A000C948A000C948A000C948A00F8
:100060000C948A000C948A000000000024002700F1
:100070002A0000000000250028002B0000000000DE
:1000800023002600290004040404040404040202DA
:100090000202020203030303030301020408102007
:1000A0004080010204081020010204081020000012
:1000B0000007000201000003040600000000000029
:1000C0000000690311241FBECFEFD8E0DEBFCDBF13
:1000D00011E0A0E0B1E0EEE1F9E002C005900D9280
:1000E000A631B107D9F711E0A6E1B1E001C01D9238
:1000F000AA3BB107E1F710E0C4ECD0E004C02297BE
:10010000FE010E948904C23CD107C9F70E94DB00AE
:100110000C948D040C940000CF93DF93809109011F
:100120000E94D101EC019093190180931801813054
:100130009105B1F48091070161E00E9484018091F2
:10014000160190911701892B01F587EA91E060E093
:1001500071E00E94F903D0931701C093160115C0F6
:100160008091070160E00E948401809116019091C6
:100170001701019751F487EA91E063E071E00E9472
:10018000F9031092170110921601DF91CF91089593
:100190008091070161E00E9464018091090160E0A3
:1001A0000E94640187EA91E040E855E260E070E077
:1001B0000E945D0208950E942A010E94C8000E94C8
:1001C0008C00FDCF1F920F920FB60F9211242F9328
:1001D0003F938F939F93AF93BF9380911E01909114
:1001E0001F01A0912001B0912101309122010196BF
:1001F000A11DB11D232F2D5F2D3720F02D57019606
:10020000A11DB11D2093220180931E0190931F0117
:10021000A0932001B093210180911A0190911B01BC
:10022000A0911C01B0911D010196A11DB11D8093EB
:100230001A0190931B01A0931C01B0931D01BF9163
:10024000AF919F918F913F912F910F900FBE0F9083
:100250001F901895789484B5826084BD84B58160C0
:1002600084BD85B5826085BD85B5816085BDEEE6BE
:10027000F0E0808181608083E1E8F0E0808182604D
:100280008083808181608083E0E8F0E0808181600C
:100290008083E1EBF0E0808184608083E0EBF0E03C
:1002A000808181608083EAE7F0E0808184608083E0
:1002B000808182608083808181608083808180688A
:1002C00080831092C1000895282F30E0C90186561E
:1002D0009F4FFC0194912A573F4FF9018491882345
:1002E00091F0E82FF0E0EE0FFF1FE859FF4FA591C6
:1002F000B491662329F48C91909589238C93089569
:100300008C91892B8C930895482F50E0CA01825517
:100310009F4FFC012491CA0186569F4FFC01949186
:100320004A575F4FFA0134913323D1F1222331F13F
:10033000233021F4809180008F7705C0243031F480
:10034000809180008F7D8093800018C0213019F447
:1003500084B58F7704C0223021F484B58F7D84BDAD
:100360000DC0263021F48091B0008F7705C0273072
:1003700029F48091B0008F7D8093B000E32FF0E0EE
:10038000EE0FFF1FEE58FF4FA591B491662329F49D
:100390008C91909589238C9308958C91892B8C93C3
:1003A0000895682F70E0CB0182559F4FFC01249186
:1003B000CB0186569F4FFC0144916A577F4FFB014A
:1003C0009491992319F420E030E038C0222331F1D0
:1003D000233021F4809180008F7705C0243031F4E0
:1003E000809180008F7D8093800018C0213019F4A7
:1003F00084B58F7704C0223021F484B58F7D84BD0D
:100400000DC0263021F48091B0008F7705C02730D1
:1004100029F48091B0008F7D8093B000892F90E007
:10042000880F991F84589F4FFC01A591B4918C911E
:1004300020E030E0842311F021E030E0C90108958C
:100440001F920F920FB60F9211242F933F934F9349
:100450005F936F937F938F939F93AF93BF93EF932C
:10046000FF934091C600E091A301F091A401CF0158
:10047000019660E870E00E9423049C018091A50130
:100480009091A6012817390739F0ED5DFE4F4083A2
:100490003093A4012093A301FF91EF91BF91AF91FD
:1004A0009F918F917F916F915F914F913F912F918C
:1004B0000F900FBE0F901F9018955F926F927F92D2
:1004C0008F929F92AF92BF92CF92DF92EF92FF9264
:1004D0000F931F93CF93DF93EC013A014B0141340B
:1004E00082E458078FE0680780E078070CF07FC04F
:1004F00060E874E88EE190E0A40193010E94580442
:100500002150304040405040CA01B90122E030E063
:1005100040E050E00E94580459016A01A60195018B
:10052000209530954095509594E0220F331F441F3D
:10053000551F9A95D1F760E074E284EF90E00E9435
:100540005804CA01B9012FEF30E040E050E00E94AA
:100550000404A40193010E945804C90181509F4FD3
:10056000181619061CF4522E5A9403C0552453949D
:10057000521A60E079E08DE390E0A40193010E94BB
:1005800058042150304040405040CA01B90122E097
:1005900030E040E050E00E945804209530954095AE
:1005A000509583E0220F331F441F551F8A95D1F7C2
:1005B00060E074E284EF90E00E945804CA01B9013F
:1005C0002FEF30E040E050E00E940404A4019301CA
:1005D0000E945804C90181509F4F181619061CF437
:1005E000822F815002C081E0821B851500F5E885CD
:1005F000F98581E090E00A8802C0880F991F0A946B
:10060000E2F7808360E079E08DE390E0A40193015C
:100610000E9458042150304040405040CA01B90166
:1006200022E030E040E050E00E94580404C0E88539
:10063000F98510829501EC81FD813083EE81FF8187
:100640002083EA85FB85208141E050E0CA010E84C9
:1006500002C0880F991F0A94E2F7282B2083EA85AD
:10066000FB852081CA010F8402C0880F991F0A945C
:10067000E2F7282B2083EA85FB858081088802C069
:10068000440F551F0A94E2F7842B8083DF91CF91AA
:100690001F910F91FF90EF90DF90CF90BF90AF90A0
:1006A0009F908F907F906F905F900895FC01A08540
:1006B000B18521898C9190E0022E02C09595879595
:1006C0000A94E2F780FFF6CF0484F585E02D60837D
:1006D00008958FE091E09093A8018093A70183E2B1
:1006E00091E09093AA018093A90185EC90E090930A
:1006F000AC018093AB0184EC90E09093AE018093C9
:10070000AD0180EC90E09093B0018093AF0181EC5B
:1007100090E09093B2018093B10186EC90E09093C9
:10072000B4018093B30184E08093B50183E08093AA
:10073000B60187E08093B70185E08093B80181E03E
:100740008093B90108950F931F93CF93DF938C018A
:10075000EB0109C02196D801ED91FC910190F08147
:10076000E02DC801099568816623A1F7DF91CF913B
:100770001F910F910895EF92FF920F931F93CF93C4
:10078000DF938C017B01EA010CC0D7016D917D01E3
:10079000D801ED91FC910190F081E02DC8010995FF
:1007A0002197209791F7DF91CF911F910F91FF90A3
:1007B000EF900895DC01ED91FC910280F381E02D32
:1007C000099508950F931F938C01DC01ED91FC9125
:1007D0000190F081E02D6DE00995D801ED91FC913B
:1007E0000190F081E02DC8016AE009951F910F91F9
:1007F00008950F931F938C010E94DA03C8010E9491
:10080000E2031F910F910895629FD001739FF00141
:10081000829FE00DF11D649FE00DF11D929FF00D90
:10082000839FF00D749FF00D659FF00D9927729FC7
:10083000B00DE11DF91F639FB00DE11DF91FBD0152
:10084000CF011124089597FB092E07260AD077FDC2
:1008500004D049D006D000201AF4709561957F4FDE
:100860000895F6F7909581959F4F0895A1E21A2E6D
:10087000AA1BBB1BFD010DC0AA1FBB1FEE1FFF1F44
:10088000A217B307E407F50720F0A21BB30BE40B94
:10089000F50B661F771F881F991F1A9469F76095DB
:1008A0007095809590959B01AC01BD01CF01089595
:1008B00097FB092E05260ED057FD04D0D7DF0AD0AE
:1008C000001C38F450954095309521953F4F4F4F7F
:1008D0005F4F0895F6F790958095709561957F4FDD
:1008E0008F4F9F4F0895AA1BBB1B51E107C0AA1F42
:1008F000BB1FA617B70710F0A61BB70B881F991FC1
:100900005A95A9F780959095BC01CD010895EE0FF9
:0E091000FF1F0590F491E02D0994F894FFCF9D
:10091E006F6E006F66660008000200000000005651
:06092E0003A303BB03005C
:00000001FF
